:020000040000FA
:1000000044EF0BF0FFFFFFFF25A003D014EF00F03B
:1000100002D004EF10F0120025A003D01CEF00F076
:1000200002D00CEF10F01200046ED8CF05F0E0CF34
:1000300006F00001E9CF0CF0EACF07F0E1CF08F0BD
:10004000E2CF09F0D9CF0AF0DACF0BF0F3CF12F0FC
:10005000F4CF13F0FACF14F0F5CF15F0F6CF16F079
:10006000F7CF17F000C00EF001C00FF002C010F083
:1000700003C011F0A0A440EF00F0A1B4ECEF07F032
:100080000EC000F00FC001F010C002F011C003F06C
:100090000CC0E9FF07C0EAFF078E08C0E1FF09C0F6
:1000A000E2FF0AC0D9FF0BC0DAFF12C0F3FF13C092
:1000B000F4FF14C0FAFF15C0F5FF16C0F6FF17C015
:1000C000F7FF045006C0E0FF05C0D8FF1000F76A34
:1000D000DE0FF66E000EF7220900F5501200040341
:1000E000090408034300430053001E034300440077
:1000F0004300200042006F006F0074006C006F002E
:100100006100640065007200F76A180FF66E010E58
:10011000F7220900F5501200000302FFFFFFFFFF66
:10012000FFFFFFFFFFFFFFFFF76A380FF66E010EBC
:10013000F7220900F550120000FF02FFFFFFFFFF4A
:10014000FFFFFFFFFFFFFFFFF76A580FF66E010E7C
:10015000F7220900F550120008000B0040000000D3
:10016000000000000000000000000000000000008F
:100170000000000000000000F76A880FF66E010E14
:10018000F7220900F55012000800000040000000AE
:10019000000000000000000000000000000000005F
:1001A0000000000000000000F76AB80FF66E010EB4
:1001B000F7220900F55012000902430002010080F5
:1001C00032090400000102020100052400100104AC
:1001D000240202052406000105240100010705810F
:1001E000030B00FA09040100020A000000070502DF
:1001F000024000010705820240000100F76A0C0F6F
:10020000F66E020EF7220900F55012000200F76A9E
:100210001E0FF66E020EF7220900F550120012179B
:100220001B20FFFFFFFFF76A360FF66E020EF72264
:100230000900F550120012011001020000086104CB
:1002400034000001010200016492609462A402D0B3
:100250006294FCD7F8EF07F0080E0201016F020E5E
:10026000036F180E026F880E006F046B020E076F8B
:10027000200E066F000112000F0153A104D00001EF
:10028000EBDF0F015391629A000101EF08F00F01BB
:100290005F6B6292000107EF08F001015D915CBFA6
:1002A0005D815C9F5C51100803E2000E016E1BD063
:1002B0005DA10DD0036A5C51000126DFFF0802E159
:1002C000000E01D0010E016E01010DD00CD0036AA9
:1002D0005C51000129DFFF0802E1000E01D0010E90
:1002E000016E010100D000011200036A01015B519F
:1002F000530FE96E0F0E0320EA6EEF6A5BC15CF1EB
:100300000001CBDF01521AE001015B51080DF350EF
:100310005D6BE96E020E5D25EA6EEF6A5B51080DBA
:10032000F3505D6B5C6F040E5C27000E5D235CC1B7
:10033000E9FF020E5D25EA6EEF6A00011200010E70
:1003400001015A6F5A51070807E35AC15BF10001D6
:10035000CCDF01015A2BF6D700011200306A2F6A58
:10036000250E2E6E800E2D6E316A326A080E336EA7
:10037000826B8191356A346A7D6B7E91836B12004A
:100380002A6A296A0101506B505101080AE3036A85
:1003900050512B0FE96E000E0320EA6EEF6A502BCE
:1003A000F3D70001DBDF1F6A010E206E1E6A120008
:1003B000629612000F015F6B626A9F0E5B6F3D0ECB
:1003C000606E5C6B0001BBDFDBDF160E0F01536F4D
:1003D00062A604D00001ECDF0F01FAD76498000197
:1003E0003BDF030E236E0DEF08F060846298648299
:1003F00013EF08F0629C19EF08F055C124F01200C9
:10040000246812000101536B29502A1034E0535123
:10041000070831E32150000A000105E0020A0AE062
:10042000010A0FE015D028C003F02750BDDEE8CF49
:1004300054F10ED028C003F0275049DEE8CF54F124
:1004400007D028C003F02750EEDEE8CF54F100D0EB
:10045000272AD8B4282A2950D8B42A062906010107
:100460005351532B036A200FE96E020E0320EA6EEC
:1004700054C1EFFFC9D729502A1004E1535108088D
:1004800001E01E6A53C155F10001B7DF1200286A6E
:10049000276A216A02011B51010A000107E0030AD1
:1004A0000BE0010A0DE0220A24E03CD02A6A120E79
:1004B000296E030E216E38D02A6A430E296E34D07D
:1004C000020E216E036A02011A511B0FE96E000E23
:1004D0000320EA6EEF50036A276E03C028F028C09D
:1004E00003F027500001F3DD036A296E03C02AF0F0
:1004F0001BD0036A02011A51000189DE036A276ECC
:1005000003C028F0273C02D028520AE028C003F09C
:1005100027504ADE036A296E03C02AF005D002D0B4
:100520006FDF11D06DDF0FD002011F5308E12A5297
:1005300003E129501E5D03E22A6A1EC229F0010E62
:100540001E6E00015FDFCFEF03F00101525306E1A1
:10055000040E236E0001F3DEC5D00101050E236EEB
:10056000020E556F280E546F010E536F535107083A
:10057000D8A0B8D053C15BF10001B7DE0101566BC2
:10058000036A53510001D0DDFF0853E0040E01015E
:10059000566FD8905335036A0001EEDD0900F5CFA0
:1005A00003F00101576F03C058F15351080DF35088
:1005B0005B6B5A6F010E5A25016E000E5B21036EB4
:1005C00001C0E9FF020E0324EA6E57C1EFFF535149
:1005D000080DF3505B6B5A6F020E5A25016E000E28
:1005E0005B21036E01C0E9FF020E0324EA6E55C1D0
:1005F000ECFFED5254C1EFFFD8905335036A000170
:10060000BBDD0900F5CF03F001015427035055234A
:10061000880E596F58B1598158B359835351080DF9
:10062000F3505B6BE96E020E5B25EA6E59C1EFFF7A
:100630000001036A01015351000166DDFF0837E044
:10064000010156835351080DF3505B6B5A6F040E32
:100650005A27000E5B23020E5A25016E000E5B2105
:10066000036E01C0E9FF020E0324EA6E55C1ECFFE0
:10067000ED5254C1EFFFD8905335036A000164DD99
:100680000900F5CF03F001015427035055235351BE
:10069000080DF3505B6B5A6F040E5A27000E5B2354
:1006A0005AC1E9FF020E5B25EA6E400EEF6E0101B2
:1006B0005651060802E10E0E566F036A53510001AF
:1006C00023DD010803E0010156890001036A0101ED
:1006D0005351530FE96E0F0E0320EA6E56C1EFFF20
:1006E000532B44D70001C7EF03F002011951000A50
:1006F00000010DE0010A15E0020A20E0060A2AE0E6
:10070000030A31E00E0A31E0010A37E046D020C08A
:1007100020F20201216B020E0101556F00016DDE16
:100720003ED002011A2D07D0010E20160101556B93
:10073000000163DE02D0000163DE31D002011A2D18
:1007400006D020820101556B000157DE02D0000166
:1007500057DE25D0020E1E6E1AC226F00101556B1F
:1007600000014BDE1CD093D61AD01FC020F2010E20
:100770000101556F000141DE12D002011A5101083A
:100780000AE31AC21FF01AC252F10001DED60101BB
:10079000556B000132DE000102D032DE00D03EEFA8
:1007A00005F01FC052F102011951000A000105E0D5
:1007B0000A0A0CE0010A2BE03FD00201206B216BFA
:1007C000020E0101556F000118DE38D001015253AD
:1007D0001BE0010E525D036A000110DD016E020193
:1007E0001C5DD8A002D001010FD0036A1C512B0F51
:1007F000E96E000E0320EA6EEFCF20F2010E010138
:10080000556F0001FADD02D00001FADD17D00101B9
:1008100052530FE0036A02011C512B0FE96E000EC8
:100820000320EA6E1AC2EFFF0101556B0001E5DDFE
:1008300002D00001E5DD02D0E3DD00D03EEF05F09F
:100840000101539152BF5381529F53A111D0525174
:10085000080DF350556B546F040E5427000E5523AA
:1008600054C1E9FF020E5525EA6E880EEF6E09D0DD
:100870005251080DF350556BE96E020E5525EA6E84
:10088000EF6A0001A8EF04F00101539152BF5381B8
:10089000529F53A111D05251080DF350556B546F14
:1008A000040E5427000E552354C1E9FF020E5525AE
:1008B000EA6E840EEF6E0AD05251080DF350556B5C
:1008C000E96E020E5525EA6E840EEF6E0001B0EF60
:1008D00004F00101539152BF5381529F53A111D093
:1008E0005251080DF350566B556F040E5527000EEC
:1008F000562355C1E9FF020E5625EA6EEFCF54F19B
:100900000AD05251080DF350566BE96E020E56256F
:10091000EA6EEFCF54F154AF02D054B502D0000EBE
:1009200001D0010E016E0001BCEF04F01CC25CF1AD
:10093000B4DC01522EE002011951010A000105E068
:10094000020A0BE0030A11E022D01CC252F178D750
:100950000101556B000151DD1CD01CC252F194D72E
:100960000101556B000149DD14D00201206B216BA0
:100970001CC252F10001ADD7015203E0010E020189
:10098000206F020E0101556F000137DD02D038DD06
:1009900000D03EEF05F0FE0E246E120002011C2D69
:1009A00001D002D01C534FE11951000A00010BE0A5
:1009B000010A0DE0210A1CE0010A1FE0030A30E0F1
:1009C000010A35E03DD0010E836FE5DF3BD0020E1A
:1009D000EA6E200EE96EE26A360EE16E080E016ED6
:1009E000E6CFEEFF012EFCD71EC255F106DD2AD060
:1009F000020E836F8181CFDF25D0020EEA6E200EBA
:100A0000E96EE26A2D0EE16E070E016EE6CFEEFF93
:100A1000012EFCD7070E0101556F0001EEDC12D04C
:100A20001AC282F00101556B0001E7DC0BD01AC23B
:100A300035F01BC234F00101556B0001DEDC02D041
:100A4000DFDC00D0020100013EEF05F01E6A02016A
:100A500018517F0B000A000107E0010A07E0030AB2
:100A600007E0230A07E008D040D608D09AD606D07F
:100A70005DD704D093D702D0C3DC00D04EEF07F08F
:100A800001015351080DF350596BE96E020E5925BF
:100A9000EA6EEFCF55F15451020806E155AD02D090
:100AA000546B02D0010E546F5451030813E1840EAD
:100AB000556F5351080DF350596B586F040E58275A
:100AC000000E592358C1E9FF020E5925EA6E840E23
:100AD000EF6E07D0542D03D0C80E556F02D0880E8C
:100AE000556FD8905335036A0001BCEC00F0090043
:100AF000F5CF03F00101566F03C057F15351080DB4
:100B0000F350596B586F010E5825016E000E592194
:100B1000036E01C0E9FF020E0324EA6E56C1EFFF27
:100B200057B1558157B355835351080DF350596B45
:100B3000E96E020E5925EA6E55C1EFFF0001120061
:100B4000036A01016051530FE96E0F0E0320EA6E34
:100B5000EF5212E06051080DF350626B616F040EAA
:100B60006127000E622361C1E9FF020E6225EA6E71
:100B7000EFCF63F163AF02D0000E01D0010E016E22
:100B8000000112005BC160F1DBDF015264E0010192
:100B90005B51080DF350616B606F040E6027000E0F
:100BA0006123010E6025016E000E6121036E01C0FC
:100BB000E9FF020E0324EA6E5CC1EFFF5E510208FA
:100BC00017E15B51080DF350616B606F040E6027F5
:100BD000000E612360C1E9FF020E6125EA6EEFCFCE
:100BE0005FF15FAD02D05E6B02D0010E5E6F13D07D
:100BF0005E51040810E15B51080DF350616BE96E22
:100C0000020E6125EA6EEFCF5FF15FAD03D0010EFA
:100C10005E6F01D05E6B5E2D03D0C80E5F6F02D099
:100C2000880E5F6F5DB15F815DB35F835B51080DBF
:100C3000F350616B606F040E6027000E612360C18A
:100C4000E9FF020E6125EA6E5FC1EFFF010E016E42
:100C500005D000D00001000E016E0101000112005C
:100C60008351010A05E0020A14E0010A19E02CD0C0
:100C7000EA6A360EE96E020EE26E180EE16E080E9A
:100C8000016EE6CFEEFF012EFCD7030E836F83DEED
:100C90001DD00101556B0001FDEC01F0836B16D0F6
:100CA000EA6A2D0EE96E020EE26E180EE16E070E74
:100CB000016EE6CFEEFF012EFCD7836B0101556B71
:100CC0000001FDEC01F002D0836B00D09CEF06F038
:100CD00001015351080DF350556B546F010E54250B
:100CE000016E000E5521036E01C0E9FF020E0324C0
:100CF000EA6E036AEFCF01F003C002F0000190EF4B
:100D000006F07E91020E0101536F546F0001B8DEB0
:100D100012007E81806B020E0101536F0001D8D753
:100D200001C07FF07F5301E1ECDFA3EF06F001018A
:100D3000525304E1000194D706D001015251020838
:100D400003E10001E6D701010001120053C15CFF7D
:100D50000101535303E0040E236E02D0020E236EF2
:100D60000001B8EF06F01F6A1E6A26C053F1EED7E5
:100D700028EF07F053C160F1E3DE015241E00101C9
:100D80005351080DF3505C6B5B6F040E5B27000E34
:100D90005C23020E5B25016E000E5C21036E01C018
:100DA000E9FF020E0324EA6EECCF03F0ED52EFCF21
:100DB00059F103C05AF15AC1EAFF59C1E9FF55C1BF
:100DC000E2FF54C1E1FF57C102F056C101F00152E8
:100DD00002E0022A02D0025206E0E6CFEEFF012E28
:100DE000FCD7022EFAD753C15BF157C15DF156C152
:100DF0005CF158C15EF10001C5DE015003D000D0A6
:100E0000000E016E12007D5310E0020E0101536FBF
:100E1000556B3E0E546F576B7DC056F1020E586FE6
:100E20000001A8DF015201E07D6B1200ECDF2FEF23
:100E300007F0010152530EE11E2C05D0000102EC17
:100E400002F006D001011E50020803E100018BD719
:100E5000010106D05251020803E10001E7D7010168
:100E60000001120022300101506F503350331F0E29
:100E7000501722524FE1020100513C0B0101516F0A
:100E8000430E0201001701015151340825E102010E
:100E90000451800B01E0046B0001D8D56498243C18
:100EA00007D00101536B030E546F0001E9DD12D02E
:100EB0000101536B020E546F0001E2DD2450FE0865
:100EC00009E001015B6B5D6B24C05CF1040E5E6F99
:100ED000000158DE1DD00101515104081AE1526B86
:100EE000000125DF0101536B020E546F0001C8DDC4
:100EF0002450FE080CE0243C01D009D001015B6BBA
:100F00005D6B24C05CF1010E5E6F00013BDE00D022
:100F100001015FD02250040817E1430E02010417BB
:100F200024680101526B000184DF243C01D00AD007
:100F300001015B6B5D6B24C05CF1020E5E6F000112
:100F400021DE00D045D0010122B41DD05051080D42
:100F5000F350536B016E020E5325036E5051080D72
:100F6000F350576BE96E020E5725EA6EEF50430BB4
:100F700003C0EAFF01C0E9FFEF6E50C152F100016A
:100F8000D6DE26D001015051080DF350536B526F3D
:100F9000040E5227000E5323020E5325036E5051A8
:100FA000080DF350576B566F040E5627000E57234B
:100FB00056C1E9FF020E5725EA6EEF50430B03C0FE
:100FC000EAFF52C1E9FFEF6E50C152F1000131DF7B
:100FD0000101000125EF08F0A194235201E13ED068
:100FE00062523CE062A404D060A402D024EF01F07D
:100FF00064A201D033D062AA04D060AA02D03CEF30
:1010000001F062A204D060A202D047EF01F062A01A
:1010100004D060A002D0DAEF01F062A804D060A88A
:1010200002D0F5EF01F062AC04D060AC02D0FAEF70
:1010300001F001014F6B62A60AD060A608D063CF11
:1010400022F00001D8EC01F00DD702D0010105D04B
:1010500001014F514F2B0308EEE2000140EF00F079
:10106000646A606A616A92500309926E236A196A1F
:10107000F2BE198EF29EC0EC01F019BEF28E42EF64
:1010800008F0EED767EF08F0196AF2BE198EF29EEB
:10109000C0EC01F019BEF28E646A140E616E606AD3
:1010A0006486010E236E58EF08F064B601D0ECD7C9
:1010B000232C0BD064BA09D0626A606AA084C00E87
:1010C000F212110E606E020E236E1200DAD7EDDFFF
:1010D00023500208FCE175EF0BF01F50016E76EF14
:1010E0000BF0010EEA6E390EE96EEF500EE00F0EB6
:1010F000016E006A002EFED7012EFBD78F0E006E08
:10110000002EFED70000EF2EF2D712007EB101D0E4
:10111000FDD78051802B036A330FE96E020E032046
:10112000EA6EEFCF38F1010100017F51805D07E3E6
:10113000196AF2BE198EF29EE4DD19BEF28E01012B
:1011400038C101F000012FEF0AF001013B91F2BE1E
:101150003B81F29E00017D513E0802E23E0E7D6F12
:101160007D517D2B036A3E0FE96E000E0320EA6E6F
:101170003AC1EFFFF29E01013BB1F28E0001C4EFD4
:1011800008F039C13AF1E1D7196AF2BE198EF29E20
:10119000020E0101606F0001D3DC19BEF28E015214
:1011A00007E0196AF2BE198EF29E2DDE19BEF28E8C
:1011B000E1EF08F07D513E0801E2FCD738C139F17A
:1011C000E0D7120001013F6B406B405101081DE365
:1011D0003CC1E9FF3DC1EAFFEFCF3EF13E5140087F
:1011E00008E23F51100DF3503E25BF0F0A0F3F6F2D
:1011F00006D03F51100DF3503E25D00F3F6F4051A8
:10120000402B3C2BD8B43D2BE0D73FC101F000016F
:101210001200F250036EF29EA68EA6840F01550EA8
:10122000A76EAA0EA76EA68200000350F21200015C
:101230001200D08CA69CF6500F0B006EF00EF61626
:101240000A0048C101F0006608D0F650010F3F0BBC
:1012500004E1A6880900DDDF0A00006607D0EECFB2
:10126000F5FF015204E00F00010603D000060B0059
:101270000C000F0EF6140F0AE6E1CBDF0166E3D790
:10128000F86A65EF09F0843D07D0853D05D0863DBD
:1012900003D0873D01D025D0D08C86C0F8FF85C013
:1012A000F7FF84C0F6FFA688A69CB3DFF86A86C065
:1012B000F8FF85C0F7FF84C0F6FFEA6A880EE96E82
:1012C000400E0101486F0001B4D700680168026850
:1012D000036803C087F002C086F001C085F000C03B
:1012E00084F0120049C101F048C100F00066012AF3
:1012F0000900F5CFEEFF002EFBD7012EF9D7F86AD3
:10130000C3EF09F001013851C00B406F39C141F101
:101310003AC142F13BC143F14051385D446F415104
:101320003959456F3E513F11D8B47BD000018451EB
:101330000101405D0FE1000185510101415D0AE1BC
:10134000000186510101425D05E100018751010163
:10135000435D1AE0000197DF43C187F042C186F088
:1013600041C185F040C184F042C1F8FF41C1F7FF9F
:1013700040C1F6FFEA6A880EE96E0101496B400E32
:10138000486F0001AFD70101400ED8804455006E70
:10139000000E4555036E00C001F003503F5D0CE3A5
:1013A00003E13E51015C08E2400ED8804455466F8F
:1013B000000E4555476F04D03FC147F13EC146F18D
:1013C000880E4425016E000E4521036E01C048F1D0
:1013D000496FEA6E01C0E9FF3DC1E2FF3CC1E1FF98
:1013E00047C102F046C101F0015202E0022A02D0D8
:1013F000025206E0E6CFEEFF012EFCD7022EFAD70E
:1014000046513C2747513D23400E4027000E4123C3
:1014100042234323456B446B46513E5F47513F5B3C
:1014200081D700011EEF0BF0C893CE6BCD6BC8B314
:1014300012D13BDE7EB101D0FAD7F76BFA0ECF6F37
:101440007EB10AD0010E0101396F00014ADECF07DB
:10145000CF5301E119D002D0FA0ECF6F57D601C099
:10146000D5F0F751F72B036AF80FE96E000E032051
:10147000EA6ED5C0EFFFD5510D0806E0D5510A0838
:1014800003E0F7514008DCE2CF5301E1D0D7130E5F
:101490000101386F00018EDEC881F8513A08D8A4E6
:1014A000CDD001013D6BF90E3C6F00018BDE01C018
:1014B000D6F001013D6BFB0E3C6F000183DE01C0E5
:1014C00038F101013D6BFD0E3C6F00017BDE38C140
:1014D000CCF001C0CBF001013D6B3C69000172DE34
:1014E00001C0CAF0CDC0D2F0CEC0D3F0CBC0D0F096
:1014F000CCC0D1F0C96B010ED56F030EF75DD55D81
:1015000015E2036AD551F80F016E000E032201C0E7
:1015100038F103C039F103C03DF101C03CF10001D5
:1015200051DE0150C927020ED527E7D7FF0ED8801C
:10153000C955010FC96F030EF75D036AF80F016EFD
:10154000000E032201C038F103C039F103C03DF1A0
:1015500001C03CF1000136DE0150C95D02E0C891D6
:101560006DD0CA2D02D0C88369D0CA51040814E1D5
:10157000010E01013D6F3C6F000124DE01C038F116
:10158000010E01013D6F030E3C6F00011BDE38C1EF
:10159000CEF001C0CDF052D0CA5350E1D35305E193
:1015A000D25303E1D1511F0849E2D35347E1D2534B
:1015B00045E1D1513F0842E303E1D051FE083EE34B
:1015C000090ED56FD46B030EF75DD55D26E2D451BD
:1015D000D42B036AD70F016E000E032201C038F12D
:1015E000010103C039F1036A0001D551F80F016E02
:1015F000000E032201C03AF103C03BF103C03DF1EC
:1016000001C03CF10001DEDD39C1EAFF38C1E9FF6C
:1016100001C0EFFF020ED527D6D7D3C03BF1D2C011
:101620003AF1D1C039F1D0C038F101013D6BD70E8C
:101630003C6F3F6BD6C03EF1000164D6C8A105D017
:10164000060E0101386F0001B5DD110E0101386F82
:101650000001B0DDECD617DE060E0101386F000187
:10166000A9DD110E0101386F0001A4DD080E010192
:10167000386FFA0E396F000134DD0101382FF9D7C8
:10168000FF00000179EF0BF0F86AD09E078EEA6A3E
:10169000E96A1A6AB896190EAF6EA60EAC6E900E75
:1016A000AB6E006801680268036803C087F002C07F
:1016B00086F001C085F000C084F0000E7E6EC190FF
:1016C000C192C194C1967F6E6B6A6D6A1B6A040EEB
:1016D0001C6E0C0E1D6E948082B00BD0010E256E18
:1016E000949A8B8AAEEC01F0F1D4F7D40152FDE06C
:1016F0009BD6256A00EF10F00300FFFFFFFFFFFFFE
:10170000FFFFFFFFFFFFFFFFFFFFFFFFFFFFFFFFE9
:10171000FFFFFFFFFFFFFFFFFFFFFFFFFFFFFFFFD9
:10172000FFFFFFFFFFFFFFFFFFFFFFFFFFFFFFFFC9
:10173000FFFFFFFFFFFFFFFFFFFFFFFFFFFFFFFFB9
:10200000F3EF1CF0FFFFFFFF046ED8CF05F0E0CF29
:1020100006F00001E9CF0CF0EACF07F0E1CF08F0BD
:10202000E2CF09F0D9CF0AF0DACF0BF0F3CF12F0FC
:10203000F4CF13F0FACF14F0F5CF15F0F6CF16F079
:10204000F7CF17F000C00EF001C00FF002C010F083
:1020500003C011F0A0A430EF10F0A1B4B3EF18F05A
:102060000EC000F00FC001F010C002F011C003F06C
:102070000CC0E9FF07C0EAFF078E08C0E1FF09C0F6
:10208000E2FF0AC0D9FF0BC0DAFF12C0F3FF13C092
:10209000F4FF14C0FAFF15C0F5FF16C0F6FF17C015
:1020A000F7FF045006C0E0FF05C0D8FF1000F76A34
:1020B000BE0FF66E200EF7220900F5501200000345
:1020C0000203FFFFFFFFFFFFFFFFFFFFFFFFF76AB6
:1020D000DE0FF66E200EF7220900F550120000FF09
:1020E0000203FFFFFFFFFFFFFFFFFFFFFFFFF76A96
:1020F000FE0FF66E200EF7220900F55012000800C0
:102100000B0040000800000000000000000000007C
:102110000000000000000000000000000000F76A5E
:102120002E0FF66E210EF7220900F550120008005E
:10213000000040000400000000000000000000005B
:102140000000000000000000000000000000F76A2E
:102150005E0FF66E210EF7220900F5501200050100
:102160000906A101050719E029E7150025017501F8
:10217000950881029501750881019505750105088D
:1021800019012905910295017503910195057508BD
:10219000150025650507190029658100C000F76A4B
:1021A000AE0FF66E210EF7220900F5501200000066
:1021B00000000000F76AC40FF66E210EF722090036
:1021C000F5501200000000003F00F76ADA0FF66ECB
:1021D000210EF7220900F550120009026B000301DD
:1021E000008032080B000202020100090400000115
:1021F0000202010005240010010424020205240645
:1022000000010524010001070581030B00FA090400
:102210000100020A00000007050202400001070554
:1022200082024000010904020002030101000921A9
:1022300010010001223F000705830308000A07057B
:10224000030304000A00F76A560FF66E220EF72207
:102250000900F55012000300F76A680FF66E220EAF
:10226000F7220900F55012001A1F2328FFFFFFFF75
:1022700054FFFFFFF76A840FF66E220EF722090063
:10228000F55012001201100100000008052407009B
:10229000000101020001F76AA60FF66E220EF72276
:1022A0000900F55012000403090408034300430029
:1022B00053001E034300440043002000260020007A
:1022C0004800490044002000440065006D006F0094
:1022D000F76AE00FF66E220EF7220900F5501200A1
:1022E00021434C4541522100F76AF80FF66E220E49
:1022F000F7220900F55012002153415645210000F4
:10230000F76A100FF66E230EF7220900F55012003F
:1023100021454E5445522100F76A280FF66E230ED0
:10232000F7220900F5501200214E4F454E544552F8
:1023300021006492609462A402D06294FCD7BFEF43
:1023400018F0080E0201016F020E036F200E026FDB
:10235000880E006F046B020E076F280E066F0001D7
:1023600012000F0153A104D00001EBDF0F015391C4
:10237000629A0001C8EF18F00F015F6B62920001D2
:10238000CEEF18F00101889187BF8881879F875120
:10239000100803E2000E016E1BD088A10DD0036A65
:1023A0008751000184DEFF0802E1000E01D0010E1A
:1023B000016E01010DD00CD0036A8751000187DE48
:1023C000FF0802E1000E01D0010E016E010100D0F4
:1023D00000011200036A01018651530FE96E0F0ECE
:1023E0000320EA6EEF6A86C187F10001CBDF01525C
:1023F0001AE001018651080DF350886BE96E020E58
:102400008825EA6EEF6A8651080DF350886B876F56
:10241000040E8727000E882387C1E9FF020E882556
:10242000EA6EEF6A00011200010E0101856F85510D
:10243000070807E385C186F10001CCDF0101852B88
:10244000F6D700011200326A316A250E306E800E16
:102450002F6E336A346A080E356E846B8391376A47
:10246000366A7F6B8091856B12002B6A2A6A0101A4
:102470007B6B7B5102080AE3036A7B512C0FE96EE8
:10248000000E0320EA6EEF6A7B2BF3D70001DBDF3F
:102490001D6A010E1E6E1C6A1200629612000F0168
:1024A0005F6B626A9F0E5B6F3D0E606E5C6B00013E
:1024B000BBDFDBDF160E0F01536F62A604D00001F5
:1024C000ECDF0F01FAD7649800013BDF030E246EA6
:1024D000D4EF18F0608462986482DAEF18F0629C9E
:1024E000E0EF18F080C126F012002668120001010A
:1024F0007E6B2A502B103DE07E5107083AE31F50B7
:10250000FC0F25E2040F0001C5EF12F029C003F013
:1025100028505BDEE8CF7FF1010119D029C003F01C
:10252000285015DEE8CF7FF1010111D029C003F05A
:102530002850B1DEE8CF7FF1010109D029C003F0B6
:10254000285098DEE8CF7FF1010101D00101282A4F
:10255000D8B4292A2A50D8B42B062A067E517E2BBD
:10256000036A280FE96E020E0320EA6E7FC1EFFFB7
:10257000C0D72A502B1004E17E51080801E01C6AE4
:102580007EC180F10001AEDF1200E824F76AF73661
:10259000A50FF66E250EF7220A00F550FA6E080018
:1025A000F550F96E0C251C252C253C25296A286A36
:1025B0001F6A02012351010A000109E0030A0DE02C
:1025C000010A0FE0220A26E0030A3DE05ED02B6AF2
:1025D000120E2A6E030E1F6E5AD02B6A6B0E2A6ED5
:1025E00056D0020E1F6E036A02012251200FE96EBF
:1025F000000E0320EA6EEF50036A286E03C029F034
:1026000029C003F02850000146DE036A2A6E03C089
:102610002BF03DD0036A0201225100011DDE036A46
:10262000286E03C029F0283C02D029520AE029C0B4
:1026300003F02850CADD036A2A6E03C02BF027D0AE
:1026400002D053DF33D0D89002012435036A000151
:10265000A6DD0900F5CF03F0286E03C029F0283C61
:1026600002D0295210E0010E1F6ED89002012435CD
:10267000036A00019FDD0900F5CF03F02A6E03C055
:102680002BF005D002D031DF11D02FDF0FD00201A7
:10269000275308E12B5203E12A50265D03E22B6AFF
:1026A00026C22AF0010E1C6E000121DF120001017A
:1026B0007D5306E1040E246E0001B6DEC5D0010193
:1026C000050E246E020E806F300E7F6F010E7E6F3E
:1026D0007E510708D8A0B8D07EC186F100017ADE0D
:1026E0000101816B036A7E510001F1DCFF0853E0B8
:1026F000040E0101816FD8907E35036A00010FDD61
:102700000900F5CF03F00101826F03C083F17E5110
:10271000080DF350866B856F010E8525016E000E46
:102720008621036E01C0E9FF020E0324EA6E82C116
:10273000EFFF7E51080DF350866B856F020E8525E5
:10274000016E000E8621036E01C0E9FF020E032414
:10275000EA6E80C1ECFFED527FC1EFFFD8907E356D
:10276000036A0001DCDC0900F5CF03F001017F27DB
:1027700003508023880E846F83B1848183B3848364
:102780007E51080DF350866BE96E020E8625EA6EC7
:1027900084C1EFFF0001036A01017E51000187DC63
:1027A000FF0837E0010181837E51080DF350866BED
:1027B000856F040E8527000E8623020E8525016E87
:1027C000000E8621036E01C0E9FF020E0324EA6EAB
:1027D00080C1ECFFED527FC1EFFFD8907E35036AD8
:1027E000000185DC0900F5CF03F001017F270350CC
:1027F00080237E51080DF350866B856F040E85276C
:10280000000E862385C1E9FF020E8625EA6E400E82
:10281000EF6E01018151060802E10E0E816F036A1D
:102820007E51000144DC010803E0010181890001BF
:10283000036A01017E51530FE96E0F0E0320EA6E09
:1028400081C1EFFF7E2B44D7000179EF14F0020124
:102850002151000A00010DE0010A15E0020A20E002
:10286000060A2AE0030A31E00E0A31E0010A37E0E5
:1028700046D01EC028F20201296B020E0101806FB2
:10288000000130DE3ED00201222D07D0010E1E16BF
:102890000101806B000126DE02D0000126DE31D06E
:1028A0000201222D06D01E820101806B00011ADE7A
:1028B00002D000011ADE25D0020E1C6E22C227F0C3
:1028C0000101806B00010EDE1CD070DE1AD01DC02D
:1028D00028F2010E0101806F000104DE12D0020116
:1028E000225101080AE322C21DF022C27DF100013B
:1028F000DED60101806B0001F5DD000102D0F5DDBF
:1029000000D005EF16F01DC07DF102012151000A33
:10291000000107E00A0A0EE0010A2DE00D0A40E07E
:1029200041D00201286B296B020E0101806F00016A
:10293000D9DD3AD001017D531BE0010E7D5D036AB4
:10294000000181DC016E0201245DD8A002D00101EA
:102950000FD0036A24512C0FE96E000E0320EA6E9B
:10296000EFCF28F2010E0101806F0001BBDD02D024
:102970000001BBDD19D001017D530FE0036A0201A4
:1029800024512C0FE96E000E0320EA6E22C2EFFFE5
:102990000101806B0001A6DD02D00001A6DD04D09C
:1029A00005DE02D0A2DD00D005EF16F001017E9118
:1029B0007DBF7E817D9F7EA111D07D51080DF3509A
:1029C000806B7F6F040E7F27000E80237FC1E9FF9D
:1029D000020E8025EA6E880EEF6E09D07D51080D3B
:1029E000F350806BE96E020E8025EA6EEF6A0001FB
:1029F0005EEF15F001017E917DBF7E817D9F7EA1FE
:102A000011D07D51080DF350806B7F6F040E7F272E
:102A1000000E80237FC1E9FF020E8025EA6E840E3E
:102A2000EF6E0AD07D51080DF350806BE96E020EF7
:102A30008025EA6E840EEF6E000166EF15F001014D
:102A40007E917DBF7E817D9F7EA111D07D51080D3D
:102A5000F350816B806F040E8027000E812380C1AC
:102A6000E9FF020E8125EA6EEFCF7FF10AD07D519A
:102A7000080DF350816BE96E020E8125EA6EEFCFEF
:102A80007FF17FAF02D07FB502D0000E01D0010EE2
:102A9000016E000172EF15F024C287F173DC015260
:102AA0002EE002012151010A000105E0020A0BE0BB
:102AB000030A11E022D024C27DF178D70101806B96
:102AC000000110DD1CD024C27DF194D70101806B80
:102AD000000108DD14D00201286B296B24C27DF1AE
:102AE0000001ADD7015203E0010E0201286F020E72
:102AF0000101806F0001F6DC02D0F7DC00D005EFA9
:102B000016F00201215100D00001EFDC00D0FEEFF1
:102B100015F0FE0E266E12000201242D01D002D007
:102B200024534FE12151000A00010BE0010A0DE09E
:102B3000210A1CE0010A1FE0030A30E0010A35E027
:102B40003DD0010E856FE5DF3BD0020EEA6E280E08
:102B5000E96EE26A380EE16E080E016EE6CFEEFF16
:102B6000012EFCD726C280F1BDDC2AD0020E856F73
:102B70008381CFDF25D0020EEA6E280EE96EE26A6D
:102B80002F0EE16E070E016EE6CFEEFF012EFCD791
:102B9000070E0101806F0001A5DC12D022C284F073
:102BA0000101806B00019EDC0BD022C237F023C2F2
:102BB00036F00101806B000195DC02D096DC00D07C
:102BC0000201000102EF16F01C6A020120517F0B86
:102BD000000A000107E0010A07E0030A07E0230AF0
:102BE00007E011D034D611D08ED60FD055D70DD0E6
:102BF00002012451020804E1000183D703D002013D
:102C000000018AD702D071DC00D015EF18F0010165
:102C10007E51080DF350846BE96E020E8425EA6E36
:102C2000EFCF80F17F51020806E180AD02D07F6BCB
:102C300002D0010E7F6F7F51030813E1840E806F75
:102C40007E51080DF350846B836F040E8327000EB2
:102C5000842383C1E9FF020E8425EA6E840EEF6EA1
:102C600007D07F2D03D0C80E806F02D0880E806FF2
:102C7000D8907E35036A00018FEC10F00900F5CF83
:102C800003F00101816F03C082F17E51080DF35002
:102C9000846B836F010E8325016E000E8421036E09
:102CA00001C0E9FF020E0324EA6E81C1EFFF82B189
:102CB000808182B380837E51080DF350846BE96E6E
:102CC000020E8425EA6E80C1EFFF00011200036A44
:102CD00001018B51530FE96E0F0E0320EA6EEF5284
:102CE00012E08B51080DF3508D6B8C6F040E8C2706
:102CF000000E8D238CC1E9FF020E8D25EA6EEFCF09
:102D00008EF18EAF02D0000E01D0010E016E0001D7
:102D1000120086C18BF1DBDF015264E001018651B4
:102D2000080DF3508C6B8B6F040E8B27000E8C23D9
:102D3000010E8B25016E000E8C21036E01C0E9FF90
:102D4000020E0324EA6E87C1EFFF8951020817E1E2
:102D50008651080DF3508C6B8B6F040E8B27000E81
:102D60008C238BC1E9FF020E8C25EA6EEFCF8AF12E
:102D70008AAD02D0896B02D0010E896F13D08951C0
:102D8000040810E18651080DF3508C6BE96E020EB9
:102D90008C25EA6EEFCF8AF18AAD03D0010E896FE0
:102DA00001D0896B892D03D0C80E8A6F02D0880E9E
:102DB0008A6F88B18A8188B38A838651080DF3505F
:102DC0008C6B8B6F040E8B27000E8C238BC1E9FF5D
:102DD000020E8C25EA6E8AC1EFFF010E016E05D04E
:102DE00000D00001000E016E0101000112008551AA
:102DF000010A05E0020A14E0010A19E02CD0EA6A8F
:102E0000380EE96E020EE26E200EE16E080E016EC3
:102E1000E6CFEEFF012EFCD7030E856F7ADE1DD0C4
:102E20000101806B000172EC12F0856B16D0EA6A2A
:102E30002F0EE96E020EE26E200EE16E070E016E9D
:102E4000E6CFEEFF012EFCD7856B0101806B000100
:102E500072EC12F002D0856B00D063EF17F0010125
:102E60007E51080DF350806B7F6F010E7F25016E40
:102E7000000E8021036E01C0E9FF020E0324EA6EFA
:102E8000036AEFCF01F003C002F0000157EF17F023
:102E90008091020E01017E6F7F6F0001B8DE12008B
:102EA0008081826B020E01017E6F0001D8D701C0C4
:102EB00081F0815301E1ECDF6AEF17F001017D53EE
:102EC00004E1000194D706D001017D51020803E11D
:102ED0000001E6D70101000112007EC15CFF010183
:102EE0007E5303E0040E246E02D0020E246E000115
:102EF0007FEF17F01D6A1C6A27C07EF1EED7EFEF57
:102F000017F07EC18BF1E3DE015241E001017E51F9
:102F1000080DF350876B866F040E8627000E8723FB
:102F2000020E8625016E000E8721036E01C0E9FFA7
:102F3000020E0324EA6EECCF03F0ED52EFCF84F1E2
:102F400003C085F185C1EAFF84C1E9FF80C1E2FFCA
:102F50007FC1E1FF82C102F081C101F0015202E0B4
:102F6000022A02D0025206E0E6CFEEFF012EFCD785
:102F7000022EFAD77EC186F182C188F181C187F124
:102F800083C189F10001C5DE015003D000D0000EDD
:102F9000016E12007F5310E0020E01017E6F806B04
:102FA000400E7F6F826B7FC081F1020E836F000144
:102FB000A8DF015201E07F6B1200ECDFF6EF17F0A3
:102FC00001017D530EE11C2C05D0000177EC12F0BD
:102FD00006D001011C50020803E100018BD701015A
:102FE00006D07D51020803E10001E7D7010100018D
:102FF0001200233001017B6F7B337B331F0E7B1765
:1030000023524FE1020100513C0B01017C6F430E42
:103010000201001701017C51340825E1020104512D
:10302000800B01E0046B0001CFD56498263C07D0EB
:1030300001017E6B030E7F6F0001E9DD12D00101FB
:103040007E6B020E7F6F0001E2DD2650FE0809E074
:103050000101866B886B26C087F1040E896F000121
:1030600058DE1DD001017C5104081AE17D6B00017E
:1030700025DF01017E6B020E7F6F0001C8DD265047
:10308000FE080CE0263C01D009D00101866B886B5C
:1030900026C087F1010E896F00013BDE00D00101DF
:1030A0005FD02350040817E1430E0201041726687D
:1030B00001017D6B000184DF263C01D00AD00101B3
:1030C000866B886B26C087F1020E896F000121DEB6
:1030D00000D045D0010123B41DD07B51080DF35021
:1030E0007E6B016E020E7E25036E7B51080DF35040
:1030F000826BE96E020E8225EA6EEF50430B03C02D
:10310000EAFF01C0E9FFEF6E7BC17DF10001D6DE71
:1031100026D001017B51080DF3507E6B7D6F040EAC
:103120007D27000E7E23020E7E25036E7B51080D47
:10313000F350826B816F040E8127000E822381C1C0
:10314000E9FF020E8225EA6EEF50430B03C0EAFF4F
:103150007DC1E9FFEF6E7BC17DF1000131DF01012F
:103160000001ECEF18F0A194245201E13ED062522C
:103170003CE062A404D060A402D099EF11F064A2F4
:1031800001D033D062AA04D060AA02D0B1EF11F00E
:1031900062A204D060A202D0BCEF11F062A004D001
:1031A00060A002D04FEF12F062A804D060A802D055
:1031B0006AEF12F062AC04D060AC02D06FEF12F094
:1031C00001017A6B62A60AD060A608D063CF23F013
:1031D00000014DEC12F00DD702D0010105D0010124
:1031E0007A517A2B0308EEE2000130EF10F00D0A5D
:1031F000434C4541524544210D0A00000D0A5341FC
:10320000564544210D0A00000D0A53454E44494ECF
:103210004720454E544552210D0A00000D0A4E4FDD
:10322000542053454E44494E4720454E5445522163
:103230000D0A00000D0A4F4B210D0A00F2CF5DF17F
:10324000F29EA96AA69CA69EA680A85001015DBF19
:10325000F28E4F6F4F5304E10001EB6B1DD0010163
:103260005C6B4F515C5D18E2036A5C51EB0FE96ED9
:10327000000E0320EA6E010E5C255F6FF2CF60F155
:10328000F29E5FC1A9FFA69CA69EA680A85060BF23
:10329000F28EEF6E5C2BE5D7000112EF1DF0646A31
:1032A000606A616A925003090101926E246A196A88
:1032B000F2BE198EF29E000135EC12F019BEF28EAC
:1032C00063EF19F0ECD713EF1DF0196AF2BE198EF7
:1032D000F29E35EC12F019BEF28E646A140E616E25
:1032E000606A6486010E246E79EF19F064B601D02D
:1032F000ECD7242C0BD064BA09D0626A606AA0842F
:10330000C00EF212110E606E020E246E14EF1DF04C
:103310001D50016E15EF1DF0010EEA6E690EE96E8B
:10332000EF500EE00F0E016E006A002EFED7012E48
:10333000FBD78F0E006E002EFED70000EF2EF2D7C7
:103340001200948082A003D0000E016E0DD0320EC8
:103350000101696F0001E0DF948082A003D0000EBC
:10336000016E02D0010E016E25EF1DF0016603D043
:10337000026602D007D0022A00C0EEFF012EFCD761
:10338000022EFAD7120001016B6B6A6B695140087B
:1033900011E269515A080EE36951400806E2695189
:1033A0005A0803E36951200901D06951696F010E80
:1033B0006B6F6A6B695160080FE269517A080CE320
:1033C000610E695F040E69256A11006E6BC103F01E
:1033D000016E6BC102F023D1695130080CE26951D2
:1033E000390809E3300E695F1D0E6925036A016E15
:1033F00003C002F014D1080E695D890FD8B00FD157
:10340000770F000112EF1BF01E0E016E010E026E0F
:10341000010105D100011F0E016E010E026E0101B6
:10342000FED00001200E016E010E026E0101F7D0E8
:103430000001210E016E010E026E0101F0D00001AB
:10344000220E016E010E026E0101E9D00001230E71
:10345000016E010E026E0101E2D00001240E016E28
:10346000010E026E0101DBD00001250E016E010E7E
:10347000026E0101D4D00001260E016E010E026E13
:103480000101CDD00001270E016E010E026E010177
:10349000C6D00001270E016E000E026E0101BFD0E2
:1034A0000001280E016E000E026E0101B8D000016D
:1034B000280E016E000E026E0101B1D000012A0E2D
:1034C000016E000E026E0101AAD000012B0E016EEA
:1034D000000E026E0101A3D000012C0E016E000E41
:1034E000026E01019CD000012D0E016E010E026ED4
:1034F000010195D000012D0E016E000E026E01013A
:103500008ED000012E0E016E010E026E010187D0D9
:1035100000012E0E016E000E026E010180D000012E
:103520002F0E016E010E026E010179D000012F0EE7
:10353000016E000E026E010172D00001300E016EAC
:10354000010E026E01016BD00001300E016E000E03
:10355000026E010164D00001310E016E010E026E97
:1035600001015DD00001310E016E000E026E0101FD
:1035700056D00001330E016E010E026E01014FD0D4
:103580000001330E016E000E026E010148D00001F1
:10359000340E016E010E026E010141D00001340EA5
:1035A000016E000E026E01013AD00001350E016E6F
:1035B000010E026E010133D00001350E016E000EC6
:1035C000026E01012CD00001360E016E010E026E5A
:1035D000010125D00001360E016E000E026E0101C0
:1035E0001ED00001370E016E010E026E010117D0D0
:1035F0000001370E016E000E026E010110D00001B5
:10360000380E016E010E026E010109D00001380E64
:10361000016E000E026E010102D0000101010001E5
:10362000B0EF1BF0E824F76AF7363F0FF66E360E60
:10363000F7220A00F550FA6E0800F550F96EBE3414
:10364000CC34A2341A361A36B0341A361A361A3630
:103650001A361A361A361A361A361A361A361A36EA
:103660001A361A361A361A361A361A361A36DA341C
:10367000083490352434323440345C349E35783408
:1036800086346A340435D635F634F2350E36943441
:103690001A361A361A361A361A361A361A361A36AA
:1036A0001A3674358235C8351235E435003616348D
:1036B0001A361A361A361A361A361A361A361A368A
:1036C0001A361A361A361A361A361A361A361A367A
:1036D0001A361A361A361A361A361A361A361A366A
:1036E0001A361A362E3566354A354E34E834BA3530
:1036F0001A361A361A361A361A361A361A361A364A
:103700001A361A361A361A361A361A361A361A3639
:103710001A361A361A361A361A361A361A361A3629
:103720001A361A36203558353C35AC35196AF2BE92
:10373000198EF29E030E01018B6F000167EC16F0EB
:1037400019BEF28E015253E0010EEA6E5F0EE96E71
:10375000006A026A070E016E09DE5EC169F113D6C6
:1037600002C068F101C067F1010168A102D0020E38
:103770005F6F67C161F1196AF2BE198EF29E030E86
:103780007E6F010E806F5F0E7F6F826B070E816F01
:10379000020E836F000181EC17F019BEF28E320E1B
:1037A0000101696F0001B8DD010EEA6E5F0EE96E7E
:1037B000006A026A070E016ED9DD196AF2BE198E1F
:1037C000F29E030E01017E6F010E806F5F0E7F6F10
:1037D000826B070E816F020E836F000181EC17F080
:1037E00019BEF28E320E0101696F000195DD1200E3
:1037F000EF520FE0EACF5DF1E9CF5CF1EFCF5EF180
:1038000095DF5DC1EAFF5CC1E9FFE92AD8B4EA2A85
:10381000EFD72BEF1DF080B101D0FDD78251822B65
:10382000036A3B0FE96E020E0320EA6EEFCF5CF1F4
:10383000010100018151825D08E3196AF2BE198E0F
:10384000F29E48EC17F019BEF28E01015CC101F046
:1038500000013AEF1DF001015EC1E9FF5FC1EAFF1F
:10386000EFCF62F161C103F060C1E9FF61C1EAFF1E
:10387000EF50625D15E15FC103F05EC1E9FF03C077
:10388000EAFFEF5203E1000E016E1FD05FC103F0AB
:103890005E515E2BD8B45F2B602BD8B4612BDCD784
:1038A0005FC103F05EC1E9FF5FC1EAFFEFCF62F1E4
:1038B00061C103F060C1E9FF61C1EAFFEF50625DE1
:1038C00002E2FF0E01D0010E016E000112000101A3
:1038D0005C6B036A5C51EB0FE96E000E0320EA6E2D
:1038E000EFCF5DF1010E5C255E6F5EC1A9FF5DC18A
:1038F000A8FFA69CA69EA684F250006EF29E0F0121
:10390000550EA76EAA0EA76EA682A6B2FED7A694E3
:103910000050F21201015C2B5D53DBE1A96A5CC12E
:10392000A8FFA69CA69EA684F250006EF29E0F01F0
:10393000550EA76EAA0EA76EA682A6B2FED7A694B3
:103940000050F2120001120001016191F2BE61818A
:10395000F29E00017F513E0802E23E0E7F6F7F51D2
:103960007F2B036A400FE96E000E0320EA6E60C1F0
:10397000EFFFF29E010161B1F28E0001C3EF1CF076
:103980005FC160F1E1D7196AF2BE198EF29E020E94
:1039900001018B6F000167EC16F019BEF28E015227
:1039A00008E0196AF2BE198EF29ECAEC17F019BE31
:1039B000F28EE2EF1CF07F513E0801E2FCD75EC1BF
:1039C0005FF1DED712000900F5520CE0F6CF5CF192
:1039D000F7CF5DF1F5CF5EF1EEDF5CC1F6FF5DC1C3
:1039E000F7FFF1D71200F86AD09E078EEA6AE96AFB
:1039F000000E7E6EC190C192C194C1967F6E6B6ABB
:103A00006D6A1A6A1B6A206A040E216E0C0E226E01
:103A1000949A8B9A83838395F29CF29EF2BEFDD793
:103A2000866B0CD44FD462D473D40152D8B40BD16A
:103A300083A30AD0949A8B8AC80E0101696F000192
:103A40006BDC949A8B9A83937CD401520BE0EA6AE4
:103A5000EB0EE96ECDD683A505D00D0E01015E6F8C
:103A6000000164DE80A1EFD00A0E0101696F000140
:103A700053DCD1D601C050F1010150510D08D8A43A
:103A8000C0D0036A00018651870FE96E000E032043
:103A9000EA6EEF6A010EEA6E510EE96E080E016ED3
:103AA000F76A000E68EC11F00A000900F5CFEEFF8E
:103AB000012EFBD701015F6B870E5E6F010E616FF8
:103AC000510E606F0001C7DE015209E1EB6BFFDEB2
:103AD0008395EE0EF66E310EF76E75DF8FD0010E08
:103AE000EA6E510EE96E070E016EF76A000E74EC75
:103AF00011F00A000900F5CFEEFF012EFBD70101FE
:103B00005F6B870E5E6F010E616F510E606F00017B
:103B1000A2DE015207E1DBDEFC0EF66E310EF76E1F
:103B200052DF6CD0010EEA6E510EE96E080E016E86
:103B3000F76A000E80EC11F00A000900F5CFEEFFE5
:103B4000012EFBD701015F6B870E5E6F010E616F67
:103B5000510E606F00017FDE015207E18385080E80
:103B6000F66E320EF76E2FDF49D0010EEA6E510E5F
:103B7000E96E0A0E016EF76A000E8CEC11F00A0075
:103B80000900F5CFEEFF012EFBD701015F6B870E19
:103B90005E6F010E616F510E606F00015CDE0152BD
:103BA00007E183951C0EF66E320EF76E0CDF26D001
:103BB00001015B6B5B510001865D1BE3036A010140
:103BC0005B51EB0F016E000E032203C05DF1036A2F
:103BD0005B51870FE96E000E0320EA6EEFCF5EF1B6
:103BE0005DC1EAFF01C0E9FF5EC1EFFF5B2BE2D7D9
:103BF0000001340EF66E320EF76EE5DE866B23D0D2
:103C0000010150510A0801E11FD050517F0809E11C
:103C100000018653D8A4860750C15EF1CCDE13D0D4
:103C20000101036A00018651870FE96E000E03202F
:103C3000EA6E50C1EFFF50C15EF1BDDE862B8651AA
:103C4000640801E1866B01010001EDD60300FFFF6E
:103C5000FFFFFFFFFFFFFFFFFFFFFFFFFFFFFFFF74
:103C6000FFFFFFFFFFFFFFFFFFFFFFFFFFFFFFFF64
:103C7000FFFFFFFFFFFFFFFFFFFFFFFFFFFFFFFF54
:103C8000FFFFFFFFFFFFFFFFFFFFFFFFFFFFFFFF44
:0200000400F00A
:100000000100FFFFFFFFFFFFFFFFFFFFFFFFFFFFFD
:10001000FFFFFFFFFFFFFFFFFFFFFFFFFFFFFFFFF0
:10002000FFFFFFFFFFFFFFFFFFFFFFFFFFFFFFFFE0
:10003000FFFFFFFFFFFFFFFFFFFFFFFFFFFFFFFFD0
:10004000FFFFFFFFFFFFFFFFFFFFFFFFFFFFFFFFC0
:10005000FFFFFFFFFFFFFFFFFFFFFFFFFFFFFFFFB0
:10006000FFFFFFFFFFFFFFFFFFFFFFFFFFFFFFFFA0
:10007000FFFFFFFFFFFFFFFFFFFFFFFFFFFFFFFF90
:10008000FFFFFFFFFFFFFFFFFFFFFFFFFFFFFFFF80
:10009000FFFFFFFFFFFFFFFFFFFFFFFFFFFFFFFF70
:1000A000FFFFFFFFFFFFFFFFFFFFFFFFFFFFFFFF60
:1000B000FFFFFFFFFFFFFFFFFFFFFFFFFFFFFFFF50
:1000C000FFFFFFFFFFFFFFFFFFFFFFFFFFFFFFFF40
:1000D000FFFFFFFFFFFFFFFFFFFFFFFFFFFFFFFF30
:1000E000FFFFFFFFFFFFFFFFFFFFFFFFFFFFFFFF20
:1000F000FFFFFFFFFFFFFFFFFFFFFFFFFFFFFFFF10
:020000040030CA
:0E0000002032391E0000090003C003E0034057
:020000040020DA
:08000000FFFFFFFFFFFFFFFF00
:00000001FF
