:04200000C5EF1CF01C
:08200800046ED8CF05F0E0CF13
:1020100006F00001E9CF0CF0EACF07F0E1CF08F0BD
:10202000E2CF09F0D9CF0AF0DACF0BF0F3CF12F0FC
:10203000F4CF13F0FACF14F0F5CF15F0F6CF16F079
:10204000F7CF17F000C00EF001C00FF002C010F083
:1020500003C011F0A0A430EF10F0A1B49AEF18F073
:102060000EC000F00FC001F010C002F011C003F06C
:102070000CC0E9FF07C0EAFF078E08C0E1FF09C0F6
:10208000E2FF0AC0D9FF0BC0DAFF12C0F3FF13C092
:10209000F4FF14C0FAFF15C0F5FF16C0F6FF17C015
:1020A000F7FF045006C0E0FF05C0D8FF1000F76A34
:1020B000BE0FF66E200EF7220900F5501200000345
:1020C0000203FFFFFFFFFFFFFFFFFFFFFFFFF76AB6
:1020D000DE0FF66E200EF7220900F550120000FF09
:1020E0000203FFFFFFFFFFFFFFFFFFFFFFFFF76A96
:1020F000FE0FF66E200EF7220900F55012000800C0
:102100000B0040000800000000000000000000007C
:102110000000000000000000000000000000F76A5E
:102120002E0FF66E210EF7220900F550120008005E
:10213000000040000400000000000000000000005B
:102140000000000000000000000000000000F76A2E
:102150005E0FF66E210EF7220900F5501200050100
:102160000906A101050719E029E7150025017501F8
:10217000950881029501750881019505750105088D
:1021800019012905910295017503910195057508BD
:10219000150025650507190029658100C000F76A4B
:1021A000AE0FF66E210EF7220900F5501200000066
:1021B00000000000F76AC40FF66E210EF722090036
:1021C000F5501200000000003F00F76ADA0FF66ECB
:1021D000210EF7220900F550120009026B000301DD
:1021E000008032080B000202020100090400000115
:1021F0000202010005240010010424020205240645
:1022000000010524010001070581030B00FA090400
:102210000100020A00000007050202400001070554
:1022200082024000010904020002030101000921A9
:1022300010010001223F000705830308000A07057B
:10224000030304000A00F76A560FF66E220EF72207
:102250000900F55012000300F76A680FF66E220EAF
:10226000F7220900F55012001A1F2328FFFFFFFF75
:1022700054FFFFFFF76A840FF66E220EF722090063
:10228000F55012001201100100000008052407009B
:10229000000101020001F76AA60FF66E220EF72276
:1022A0000900F55012000403090408034300430029
:1022B00053001E034300440043002000260020007A
:1022C0004800490044002000440065006D006F0094
:1022D000F76AE00FF66E220EF7220900F5501200A1
:1022E00021434C4541522100F76AF80FF66E220E49
:1022F000F7220900F55012002153415645210000F4
:102300006492609462A402D06294FCD7A6EF18F0A5
:10231000080E0201016F020E036F200E026F880E7D
:10232000006F046B020E076F280E066F000112008B
:102330000F0153A104D00001EBDF0F015391629A0A
:102340000001AFEF18F00F015F6B62920001B5EF73
:1023500018F00101869185BF8681859F85511008FF
:1023600003E2000E016E1BD086A10DD0036A8551D9
:1023700000019DDEFF0802E1000E01D0010E016E9A
:1023800001010DD00CD0036A85510001A0DEFF08C9
:1023900002E1000E01D0010E016E010100D000012A
:1023A0001200036A01018451530FE96E0F0E0320DE
:1023B000EA6EEF6A84C185F10001CBDF01521AE0B9
:1023C00001018451080DF350866BE96E020E8625DB
:1023D000EA6EEF6A8451080DF350866B856F040E28
:1023E0008527000E862385C1E9FF020E8625EA6E49
:1023F000EF6A00011200010E0101836F835107088B
:1024000007E383C184F10001CCDF0101832BF6D700
:1024100000011200326A316A250E306E800E2F6E76
:10242000336A346A080E356E846B8391376A366A74
:102430007F6B8091856B12002B6A2A6A0101796B90
:10244000795102080AE3036A79512C0FE96E000EF4
:102450000320EA6EEF6A792BF3D70001DBDF1D6AF8
:10246000010E1E6E1C6A1200629612000F015F6B55
:10247000626A9F0E5B6F3D0E606E5C6B0001BBDF9E
:10248000DBDF160E0F01536F62A604D00001ECDFF4
:102490000F01FAD7649800013BDF030E246EBBEFF7
:1024A00018F0608462986482C1EF18F0629CC7EFF4
:1024B00018F07EC126F012002668120001017C6B24
:1024C0002A502B103DE07C5107083AE31F50FC0FC7
:1024D00025E2040F0001ACEF12F029C003F02850F0
:1024E00074DEE8CF7DF1010119D029C003F0285036
:1024F0002EDEE8CF7DF1010111D029C003F0285074
:10250000CADEE8CF7DF1010109D029C003F02850CF
:10251000B1DEE8CF7DF1010101D00101282AD8B454
:10252000292A2A50D8B42B062A067C517C2B036A10
:10253000280FE96E020E0320EA6E7DC1EFFFC0D7BF
:102540002A502B1004E17C51080801E01C6A7CC170
:102550007EF10001AEDF1200E824F76AF736730F50
:10256000F66E250EF7220A00F550FA6E0800F550B7
:10257000F96EDA24EA24FA240A25296A286A1F6AED
:1025800002012351010A000109E0030A0DE0010ADA
:102590000FE0220A26E0030A3DE05ED02B6A120E0D
:1025A0002A6E030E1F6E5AD02B6A6B0E2A6E56D0FF
:1025B000020E1F6E036A02012251200FE96E000E07
:1025C0000320EA6EEF50036A286E03C029F029C089
:1025D00003F0285000015FDE036A2A6E03C02BF06F
:1025E0003DD0036A02012251000136DE036A286EE3
:1025F00003C029F0283C02D029520AE029C003F088
:102600002850E3DD036A2A6E03C02BF027D002D0E6
:1026100053DF33D0D89002012435036A0001BFDDB7
:102620000900F5CF03F0286E03C029F0283C02D042
:10263000295210E0010E1F6ED89002012435036A62
:102640000001B8DD0900F5CF03F02A6E03C02BF0BE
:1026500005D002D031DF11D02FDF0FD00201275378
:1026600008E12B5203E12A50265D03E22B6A26C2C1
:102670002AF0010E1C6E000121DF120001017B53C4
:1026800006E1040E246E0001B6DEC5D00101050E80
:10269000246E020E7E6F300E7D6F010E7C6F7C51BA
:1026A0000708D8A0B8D07CC184F100017ADE01010E
:1026B0007F6B036A7C5100010ADDFF0853E0040EC2
:1026C00001017F6FD8907C35036A000128DD090085
:1026D000F5CF03F00101806F03C081F17C51080D3B
:1026E000F350846B836F010E8325016E000E8421ED
:1026F000036E01C0E9FF020E0324EA6E80C1EFFF02
:102700007C51080DF350846B836F020E8325016E9C
:10271000000E8421036E01C0E9FF020E0324EA6E5D
:102720007EC1ECFFED527DC1EFFFD8907C35036A8E
:102730000001F5DC0900F5CF03F001017D2703500E
:102740007E23880E826F81B1828181B382837C5126
:10275000080DF350846BE96E020E8425EA6E82C187
:10276000EFFF0001036A01017C510001A0DCFF08BA
:1027700037E001017F837C51080DF350846B836F38
:10278000040E8327000E8423020E8325016E000EA3
:102790008421036E01C0E9FF020E0324EA6E7EC1AC
:1027A000ECFFED527DC1EFFFD8907C35036A00014C
:1027B0009EDC0900F5CF03F001017D2703507E2345
:1027C0007C51080DF350846B836F040E8327000E39
:1027D000842383C1E9FF020E8425EA6E400EEF6E6A
:1027E00001017F51060802E10E0E7F6F036A7C51E2
:1027F00000015DDC010803E001017F890001036A3B
:1028000001017C51530FE96E0F0E0320EA6E7FC168
:10281000EFFF7C2B44D7000160EF14F0020121513F
:10282000000A00010DE0010A15E0020A20E0060A94
:102830002AE0030A31E00E0A31E0010A37E046D00F
:102840001EC028F20201296B020E01017E6F0001F9
:1028500030DE3ED00201222D07D0010E1E160101EE
:102860007E6B000126DE02D0000126DE31D002019F
:10287000222D06D01E8201017E6B00011ADE02D0DD
:1028800000011ADE25D0020E1C6E22C227F00101C3
:102890007E6B00010EDE1CD070DE1AD01DC028F247
:1028A000010E01017E6F000104DE12D002012251EF
:1028B00001080AE322C21DF022C27BF10001DED62C
:1028C00001017E6B0001F5DD000102D0F5DD00D0D5
:1028D000ECEF15F01DC07BF102012151000A00014F
:1028E00007E00A0A0EE0010A2DE00D0A40E041D09F
:1028F0000201286B296B020E01017E6F0001D9DDF8
:102900003AD001017B531BE0010E7B5D036A00019D
:102910009ADC016E0201245DD8A002D001010FD023
:10292000036A24512C0FE96E000E0320EA6EEFCFEC
:1029300028F2010E01017E6F0001BBDD02D0000113
:10294000BBDD19D001017B530FE0036A0201245162
:102950002C0FE96E000E0320EA6E22C2EFFF010188
:102960007E6B0001A6DD02D00001A6DD04D005DEED
:1029700002D0A2DD00D0ECEF15F001017C917BBF0D
:102980007C817B9F7CA111D07B51080DF3507E6B25
:102990007D6F040E7D27000E7E237DC1E9FF020EB0
:1029A0007E25EA6E880EEF6E09D07B51080DF3503C
:1029B0007E6BE96E020E7E25EA6EEF6A000145EF3E
:1029C00015F001017C917BBF7C817B9F7CA111D0A4
:1029D0007B51080DF3507E6B7D6F040E7D27000E3A
:1029E0007E237DC1E9FF020E7E25EA6E840EEF6E26
:1029F0000AD07B51080DF3507E6BE96E020E7E25E6
:102A0000EA6E840EEF6E00014DEF15F001017C912E
:102A10007BBF7C817B9F7CA111D07B51080DF35043
:102A20007F6B7E6F040E7E27000E7F237EC1E9FF41
:102A3000020E7F25EA6EEFCF7DF10AD07B51080DA3
:102A4000F3507F6BE96E020E7F25EA6EEFCF7DF1CA
:102A50007DAF02D07DB502D0000E01D0010E016E17
:102A6000000159EF15F024C285F173DC01522EE00C
:102A700002012151010A000105E0020A0BE0030AEC
:102A800011E022D024C27BF178D701017E6B0001D6
:102A900010DD1CD024C27BF194D701017E6B0001B4
:102AA00008DD14D00201286B296B24C27BF10001E0
:102AB000ADD7015203E0010E0201286F020E0101A1
:102AC0007E6F0001F6DC02D0F7DC00D0ECEF15F0F1
:102AD0000201215100D00001EFDC00D0E5EF15F03C
:102AE000FE0E266E12000201242D01D002D02453C6
:102AF0004FE12151000A00010BE0010A0DE0210A1B
:102B00001CE0010A1FE0030A30E0010A35E03DD075
:102B1000010E856FE5DF3BD0020EEA6E280EE96EEE
:102B2000E26A380EE16E080E016EE6CFEEFF012E6E
:102B3000FCD726C27EF1BDDC2AD0020E856F8381D0
:102B4000CFDF25D0020EEA6E280EE96EE26A2F0E64
:102B5000E16E070E016EE6CFEEFF012EFCD7070EE9
:102B600001017E6F0001A5DC12D022C284F00101B8
:102B70007E6B00019EDC0BD022C237F023C236F000
:102B800001017E6B000195DC02D096DC00D00201D1
:102B90000001E9EF15F01C6A020120517F0B000AC9
:102BA000000107E0010A07E0030A07E0230A07E043
:102BB00011D034D611D08ED60FD055D70DD00201FA
:102BC0002451020804E1000183D703D0020100016F
:102BD0008AD702D071DC00D0FCEF17F001017C51E4
:102BE000080DF350826BE96E020E8225EA6EEFCF7C
:102BF0007EF17D51020806E17EAD02D07D6B02D0F0
:102C0000010E7D6F7D51030813E1840E7E6F7C51B0
:102C1000080DF350826B816F040E8127000E822312
:102C200081C1E9FF020E8225EA6E840EEF6E07D0A5
:102C30007D2D03D0C80E7E6F02D0880E7E6FD89097
:102C40007C35036A00018FEC10F00900F5CF03F02A
:102C500001017F6F03C080F17C51080DF350826B3E
:102C6000816F010E8125016E000E8221036E01C06D
:102C7000E9FF020E0324EA6E7FC1EFFF80B17E817F
:102C800080B37E837C51080DF350826BE96E020E97
:102C90008225EA6E7EC1EFFF00011200036A010186
:102CA0008951530FE96E0F0E0320EA6EEF5212E0C6
:102CB0008951080DF3508B6B8A6F040E8A27000E22
:102CC0008B238AC1E9FF020E8B25EA6EEFCF8CF1D0
:102CD0008CAF02D0000E01D0010E016E0001120077
:102CE00084C189F1DBDF015264E001018451080DE8
:102CF000F3508A6B896F040E8927000E8A23010E18
:102D00008925016E000E8A21036E01C0E9FF020EC3
:102D10000324EA6E85C1EFFF8751020817E1845151
:102D2000080DF3508A6B896F040E8927000E8A23E1
:102D300089C1E9FF020E8A25EA6EEFCF88F188ADDE
:102D400002D0876B02D0010E876F13D08751040821
:102D500010E18451080DF3508A6BE96E020E8A254A
:102D6000EA6EEFCF88F188AD03D0010E876F01D0F6
:102D7000876B872D03D0C80E886F02D0880E886FAE
:102D800086B1888186B388838451080DF3508A6B9D
:102D9000896F040E8927000E8A2389C1E9FF020E7C
:102DA0008A25EA6E88C1EFFF010E016E05D000D0C2
:102DB0000001000E016E0101000112008551010A9F
:102DC00005E0020A14E0010A19E02CD0EA6A380E84
:102DD000E96E020EE26E200EE16E080E016EE6CF85
:102DE000EEFF012EFCD7030E856F7ADE1DD00101A8
:102DF0007E6B000159EC12F0856B16D0EA6A2F0E3B
:102E0000E96E020EE26E200EE16E070E016EE6CF55
:102E1000EEFF012EFCD7856B01017E6B000159ECA2
:102E200012F002D0856B00D04AEF17F001017C51FF
:102E3000080DF3507E6B7D6F010E7D25016E000E37
:102E40007E21036E01C0E9FF020E0324EA6E036ACD
:102E5000EFCF01F003C002F000013EEF17F08091C8
:102E6000020E01017C6F7D6F0001B8DE12008081CF
:102E7000826B020E01017C6F0001D8D701C081F086
:102E8000815301E1ECDF51EF17F001017B5304E1C5
:102E9000000194D706D001017B51020803E1000133
:102EA000E6D70101000112007CC15CFF01017C53E7
:102EB00003E0040E246E02D0020E246E000166EFC1
:102EC00017F01D6A1C6A27C07CF1EED7D6EF17F009
:102ED0007CC189F1E3DE015241E001017C51080D22
:102EE000F350856B846F040E8427000E8523020E39
:102EF0008425016E000E8521036E01C0E9FF020EDC
:102F00000324EA6EECCF03F0ED52EFCF82F103C061
:102F100083F183C1EAFF82C1E9FF7EC1E2FF7DC187
:102F2000E1FF80C102F07FC101F0015202E0022AFC
:102F300002D0025206E0E6CFEEFF012EFCD7022EB1
:102F4000FAD77CC184F180C186F17FC185F181C14E
:102F500087F10001C5DE015003D000D0000E016EE4
:102F600012007F5310E0020E01017C6F7E6B400E59
:102F70007D6F806B7FC07FF1020E816F0001A8DF43
:102F8000015201E07F6B1200ECDFDDEF17F0010171
:102F90007B530EE11C2C05D000015EEC12F006D034
:102FA00001011C50020803E100018BD7010106D08A
:102FB0007B51020803E10001E7D701010001120083
:102FC00023300101796F793379331F0E791723523A
:102FD0004FE1020100513C0B01017A6F430E0201E7
:102FE000001701017A51340825E102010451800BD8
:102FF00001E0046B0001CFD56498263C07D00101A5
:103000007C6B030E7D6F0001E9DD12D001017C6B4A
:10301000020E7D6F0001E2DD2650FE0809E001018D
:10302000846B866B26C085F1040E876F000158DE25
:103030001DD001017A5104081AE17B6B000125DFE4
:1030400001017C6B020E7D6F0001C8DD2650FE0879
:103050000CE0263C01D009D00101846B866B26C0B0
:1030600085F1010E876F00013BDE00D001015FD0CA
:103070002350040817E1430E0201041726680101DA
:103080007B6B000184DF263C01D00AD00101846BF8
:10309000866B26C085F1020E876F000121DE00D00D
:1030A00045D0010123B41DD07951080DF3507C6B3C
:1030B000016E020E7C25036E7951080DF350806B72
:1030C000E96E020E8025EA6EEF50430B03C0EAFF63
:1030D00001C0E9FFEF6E79C17BF10001D6DE26D099
:1030E00001017951080DF3507C6B7B6F040E7B2737
:1030F000000E7C23020E7C25036E7951080DF350DF
:10310000806B7F6F040E7F27000E80237FC1E9FF55
:10311000020E8025EA6EEF50430B03C0EAFF7BC12D
:10312000E9FFEF6E79C17BF1000131DF01010001A0
:10313000D3EF18F0A194245201E13ED062523CE05A
:1031400062A404D060A402D080EF11F064A201D088
:1031500033D062AA04D060AA02D098EF11F062A224
:1031600004D060A202D0A3EF11F062A004D060A04E
:1031700002D036EF12F062A804D060A802D051EF5E
:1031800012F062AC04D060AC02D056EF12F0010134
:10319000786B62A60AD060A608D063CF23F0000146
:1031A00034EC12F00DD702D0010105D001017851A5
:1031B000782B0308EEE2000130EF10F00D0A434CCB
:1031C0004541524544210D0A00000D0A5341564520
:1031D00044210D0A00000D0A4F4B210D0A00F2CFC9
:1031E0005BF1F29EA96AA69CA69EA680A85001014A
:1031F0005BBFF28E4F6F4F5304E10001EB6B1DD0AC
:1032000001015A6B4F515A5D18E2036A5A51EB0F94
:10321000E96E000E0320EA6E010E5A255D6FF2CFB3
:103220005EF1F29E5DC1A9FFA69CA69EA680A85055
:103230005EBFF28EEF6E5A2BE5D70001DFEF1CF078
:10324000646A606A616A925003090101926E246A9D
:10325000196AF2BE198EF29E00011CEC12F019BE22
:10326000F28E34EF19F0ECD7E0EF1CF0196AF2BEE1
:10327000198EF29E1CEC12F019BEF28E646A140EC6
:10328000616E606A6486010E246E4AEF19F064B6BE
:1032900001D0ECD7242C0BD064BA09D0626A606AE2
:1032A000A084C00EF212110E606E020E246EE1EFC9
:1032B0001CF01D50016EE2EF1CF0010EEA6E670E6D
:1032C000E96EEF500EE00F0E016E006A002EFED781
:1032D000012EFBD78F0E006E002EFED70000EF2EC2
:1032E000F2D71200948082A003D0000E016E0DD0A0
:1032F000320E0101676F0001E0DF948082A003D0ED
:10330000000E016E02D0010E016EF2EF1CF001669C
:1033100003D0026602D007D0022A00C0EEFF012EC1
:10332000FCD7022EFAD712000101696B686B675156
:10333000400811E267515A080EE36751400806E25F
:1033400067515A0803E36751200901D06751676F3D
:10335000010E696F686B675160080FE267517A0868
:103360000CE3610E675F040E67256811006E69C18A
:1033700003F0016E69C102F023D1675130080CE2FD
:103380006751390809E3300E675F1D0E6725036A30
:10339000016E03C002F014D1080E675D890FD8B02A
:1033A0000FD1770F0001E3EF1AF01E0E016E010E30
:1033B000026E010105D100011F0E016E010E026EA9
:1033C0000101FED00001200E016E010E026E01010E
:1033D000F7D00001210E016E010E026E0101F0D046
:1033E0000001220E016E010E026E0101E9D0000102
:1033F000230E016E010E026E0101E2D00001240EC7
:10340000016E010E026E0101DBD00001250E016E7E
:10341000010E026E0101D4D00001260E016E010ED4
:10342000026E0101CDD00001270E016E010E026E69
:103430000101C6D00001270E016E000E026E0101CF
:10344000BFD00001280E016E000E026E0101B8D03F
:103450000001280E016E000E026E0101B1D00001C4
:103460002A0E016E000E026E0101AAD000012B0E81
:10347000016E000E026E0101A3D000012C0E016E40
:10348000000E026E01019CD000012D0E016E010E96
:10349000026E010195D000012D0E016E000E026E2C
:1034A00001018ED000012E0E016E010E026E01018F
:1034B00087D000012E0E016E000E026E010180D039
:1034C00000012F0E016E010E026E010179D0000184
:1034D0002F0E016E000E026E010172D00001300E3F
:1034E000016E010E026E01016BD00001300E016E03
:1034F000000E026E010164D00001310E016E010E5A
:10350000026E01015DD00001310E016E000E026EEF
:10351000010156D00001330E016E010E026E010151
:103520004FD00001330E016E000E026E010148D033
:103530000001340E016E010E026E010141D0000146
:10354000340E016E000E026E01013AD00001350EFC
:10355000016E010E026E010133D00001350E016EC5
:10356000000E026E01012CD00001360E016E010E1C
:10357000026E010125D00001360E016E000E026EB2
:1035800001011ED00001370E016E010E026E010115
:1035900017D00001370E016E000E026E010110D02F
:1035A0000001380E016E010E026E010109D000010A
:1035B000380E016E000E026E010102D00001010101
:1035C000000181EF1BF0E824F76AF736E10FF66E91
:1035D000350EF7220A00F550FA6E0800F550F96E24
:1035E00060346E344434BC35BC355234BC35BC35E3
:1035F000BC35BC35BC35BC35BC35BC35BC35BC3543
:10360000BC35BC35BC35BC35BC35BC35BC35BC3532
:103610007C34AA333235C633D433E233FE334035FB
:103620001A3428340C34A634783598349435B035AF
:103630003634BC35BC35BC35BC35BC35BC35BC3589
:10364000BC35BC35163524356A35B4348635A235DB
:10365000B833BC35BC35BC35BC35BC35BC35BC35E8
:10366000BC35BC35BC35BC35BC35BC35BC35BC35D2
:10367000BC35BC35BC35BC35BC35BC35BC35BC35C2
:10368000BC35BC35BC35D0340835EC34F0338A3425
:103690005C35BC35BC35BC35BC35BC35BC35BC3502
:1036A000BC35BC35BC35BC35BC35BC35BC35BC3592
:1036B000BC35BC35BC35BC35BC35BC35BC35BC3582
:1036C000BC35BC35BC35C234FA34DE344E35196AEB
:1036D000F2BE198EF29E030E0101896F00014EECBD
:1036E00016F019BEF28E015253E0010EEA6E5D0E25
:1036F000E96E006A026A070E016E09DE5CC167F1BD
:1037000013D602C066F101C065F1010166A102D0C5
:10371000020E5D6F65C15FF1196AF2BE198EF29EED
:10372000030E7C6F010E7E6F5D0E7D6F806B070E4A
:103730007F6F020E816F000168EC17F019BEF28EE8
:10374000320E0101676F0001B8DD010EEA6E5D0EF9
:10375000E96E006A026A070E016ED9DD196AF2BECF
:10376000198EF29E030E01017C6F010E7E6F5D0EBD
:103770007D6F806B070E7F6F020E816F000168EC1A
:1037800017F019BEF28E320E0101676F000195DD50
:10379000D3EF1BF0EF520FE0EACF5BF1E9CF5AF124
:1037A000EFCF5CF194D75BC1EAFF5AC1E9FFE92A88
:1037B000D8B4EA2AEFD7F8EF1CF080B101D0FDD7DA
:1037C0008251822B036A3B0FE96E020E0320EA6EE0
:1037D000EFCF5AF1010100018151825D08E3196ABE
:1037E000F2BE198EF29E2FEC17F019BEF28E010177
:1037F0005AC101F0000100EF1DF001015CC1E9FFB9
:103800005DC1EAFFEFCF60F15FC103F05EC1E9FF88
:103810005FC1EAFFEF50605D15E15DC103F05CC17F
:10382000E9FF03C0EAFFEF5203E1000E016E1FD073
:103830005DC103F05C515C2BD8B45D2B5E2BD8B41A
:103840005F2BDCD75DC103F05CC1E9FF5DC1EAFF1E
:10385000EFCF60F15FC103F05EC1E9FF5FC1EAFF36
:10386000EF50605D02E2FF0E01D0010E016E00011B
:10387000120001015A6B036A5A51EB0FE96E000EF8
:103880000320EA6EEFCF5BF1010E5A255C6F5CC13D
:10389000A9FF5BC1A8FFA69CA69EA684F250006E5D
:1038A000F29E0F01550EA76EAA0EA76EA682A6B2B3
:1038B000FED7A6940050F21201015A2B5B53DBE1B4
:1038C000A96A5AC1A8FFA69CA69EA684F250006EC3
:1038D000F29E0F01550EA76EAA0EA76EA682A6B283
:1038E000FED7A6940050F2120001120001015F9170
:1038F000F2BE5F81F29E00017F513E0802E23E0E61
:103900007F6F7F517F2B036A400FE96E000E03200B
:10391000EA6E5EC1EFFFF29E01015FB1F28E00011F
:1039200095EF1CF05DC15EF1E1D7196AF2BE198E08
:10393000F29E020E0101896F00014EEC16F019BED5
:10394000F28E015208E0196AF2BE198EF29EB1ECB5
:1039500017F019BEF28EB4EF1CF07F513E0801E261
:10396000FCD75CC15DF1DED712000900F5520CE016
:10397000F6CF5AF1F7CF5BF1F5CF5CF1EEDF5AC12C
:10398000F6FF5BC1F7FFF1D71200F86AD09E078EF1
:10399000EA6AE96A000E7E6EC190C192C194C19636
:1039A0007F6E6B6A6D6A1A6A1B6A206A040E216E4A
:1039B0000C0E226E949A8B9A8383866B10D453D408
:1039C00066D477D40152D8B4B0D083A30AD0949AE5
:1039D0008B8AC80E0101676F00016FDC949A8B9A85
:1039E000839380D4015204E0EA6AEB0EE96ED2D6EA
:1039F00080A19BD00A0E0101676F00015EDCDDD65D
:103A000001C050F1010150510A08D8A479D0036ACD
:103A100000018651870FE96E000E0320EA6EEF6AFF
:103A2000010EEA6E510EE96E080E016EF76A000E85
:103A300068EC11F00A000900F5CFEEFF012EFBD76C
:103A400001015D6B870E5C6F010E5F6F510E5E6F43
:103A50000001D3DE015208E1EB6B0BDFBC0EF66E0A
:103A6000310EF76E82DF49D0010EEA6E510EE96E1B
:103A7000070E016EF76A000E74EC11F00A000900DF
:103A8000F5CFEEFF012EFBD701015D6B870E5C6F5A
:103A9000010E5F6F510E5E6F0001AFDE015207E154
:103AA000E8DECA0EF66E310EF76E5FDF26D001013A
:103AB000596B59510001865D1BE3036A010159519D
:103AC000EB0F016E000E032203C05BF1036A595134
:103AD000870FE96E000E0320EA6EEFCF5CF15BC149
:103AE000EAFF01C0E9FF5CC1EFFF592BE2D70001FB
:103AF000D60EF66E310EF76E38DF866B16D00101EA
:103B000050510D0813E0036A00018651870FE96EDA
:103B1000000E0320EA6E50C1EFFF50C15CF11DDFC3
:103B2000862B8651640801E1866B0101000148D7AC
:023B3000030090
:0200000400F00A
:0100000000FF
:020000040030CA
:0E00000020F2181E0008890003C003E0034030
:00000001FF
;PIC18F14K50
;CRC=B284  CREATED="26-Oct-12 15:53"
